:100000000C9434000C9451000C9451000C94510049
:100010000C9451000C9451000C9451000C9451001C
:100020000C9451000C9451000C9451000C9451000C
:100030000C9451000C9447010C9451000C94510005
:100040000C9451000C9451000C94D5010C940302B3
:100050000C9451000C945C010C9451000C945100D0
:100060000C9451000C94510011241FBECFEFD8E026
:10007000DEBFCDBF11E0A0E0B1E0E2E4F5E002C0F8
:1000800005900D92A232B107D9F721E0A2E2B1E0CA
:1000900001C01D92A736B207E1F70E94F6000C944A
:1000A0009F020C940000299A85E08A95F1F70000E0
:1000B00029980895CF93C82F662311F0289A01C07C
:1000C0002898549A559A569A579A5F985E985D98D0
:1000D0005C98CC230CF45F9AC6FD5E9AC5FD5D9AD0
:1000E000C4FD5C9A0E9453005F985E985D985C988E
:1000F000C3FD5F9AC2FD5E9AC1FD5D9AC0FD5C9A28
:100100000E9453005C9A5D9A5E9A5F9A87EB9BE02F
:100110000197F1F700C00000CF91089560E00E94C0
:100120005A000895611104C080580E948E000895FD
:1001300080540E948E00089581E00E948E000895F0
:1001400061E00E945A000895CF93DF93EC0121965D
:10015000FC018081882329F00E94A00089918111EF
:10016000FBCFDF91CF910895CF93C82F209A559A56
:10017000219A549A559A569A579A8FEF99EF019768
:10018000F1F700C000005D9A5C9A0E9453008FE175
:100190009EE40197F1F700C000000E9453008FEF2A
:1001A00090E00197F1F700C000000E9453008FEF2C
:1001B00090E00197F1F700C000005C980E945300A6
:1001C0008FEF90E00197F1F700C0000088E20E94F5
:1001D0008E0088E00E948E000E949C0086E00E94B3
:1001E0008E008C2F0E948E00CF9108958CE00E948B
:1001F000B40060E081E00E94920080E091E00E9403
:10020000A40061E083E00E94920087E091E00E94F8
:10021000A40060E088E00E9492008CE091E00E94DF
:10022000A40060E08DE00E94920081E191E00E94D4
:10023000A40061E088E00E94920085E191E00E94C4
:10024000A400ECE7F0E08081806480838081807F7F
:100250008083EAE7F0E08081806880838081886025
:100260008083808187608083E1E8F0E080818B7FFC
:100270008083808183608083EFE6F0E0808181600D
:10028000808387E690E00E942D027894FFCF1F9232
:100290000F920FB60F9211248F93EF93FF93EAE71B
:1002A000F0E0808180648083FF91EF918F910F90C7
:1002B0000FBE0F901F9018951F920F920FB60F92BE
:1002C00011240F931F932F933F934F935F936F933B
:1002D0007F938F939F93AF93BF93EF93FF93CF93AE
:1002E000DF9300D000D0CDB7DEB780E390E39A83F0
:1002F00089839C838B8300917800109179004AE078
:10030000BE016F5F7F4FC8010E946A0260E088E013
:100310000E9492008AE191E00E94A40060E08DE0DA
:100320000E9492008BE191E00E94A4004AE0BE018D
:100330006F5F7F4FC8010E946A0260E088E00E9400
:100340009200CE0101960E94A40040E1BE016F5FC1
:100350007F4FC8010E946A0260E08DE00E94920017
:10036000CE0101960E94A400CE0101960E945B027C
:100370008FE191E00E945B020F900F900F900F9021
:10038000DF91CF91FF91EF91BF91AF919F918F91AD
:100390007F916F915F914F913F912F911F910F919D
:1003A0000F900FBE0F901F9018951F920F920FB6CF
:1003B0000F9211242F938F939F93EF93FF9380912C
:1003C000C0002091C6008C71E0912401EF5FEF71B5
:1003D00090912301E91739F0E0932401F0E0E95D01
:1003E000FE4F208301C082E090912201892B8093EF
:1003F0002201FF91EF919F918F912F910F900FBE4E
:100400000F901F9018951F920F920FB60F92112404
:100410008F939F93EF93FF939091260180912501F5
:10042000981769F0E0912501EF5FEF71E0932501E6
:10043000F0E0E95BFE4F80818093C60005C0E1ECEF
:10044000F0E080818F7D8083FF91EF919F918F916C
:100450000F900FBE0F901F901895109226011092CA
:100460002501109224011092230199231CF422E00B
:100470002093C00090789093C5008093C40088E9D1
:100480008093C10086E08093C200089520912601E8
:100490002F5F2F71909125012917E1F3E22FF0E0F2
:1004A000E95BFE4F808320932601E1ECF0E0808140
:1004B000806280830895CF93DF93EC018881882345
:1004C00031F021960E94460289918111FBCFDF9184
:1004D000CF910895BB274A3031F4992322F4BDE22D
:1004E000909581959F4F0C947602BB27FB01552771
:1004F000AA27880F991FAA1FA41710F0A41B839581
:100500005051B9F7A05DAA3308F0A95DA1930097F7
:1005100079F7B111B1931192CB010C948F02DC01E8
:10052000FC01672F71917723E1F7329704C07C912A
:100530006D9370836291AE17BF07C8F30895F89466
:02054000FFCFEB
:1005420076616C75653A006B65793A003130323309
:1005520000336666006E6F6E650020202020000D5D
:020562000A008D
:00000001FF
